{
  "contractName": "Registration",
  "abi": [
    {
      "inputs": [
        {
          "components": [
            {
              "internalType": "string",
              "name": "name",
              "type": "string"
            },
            {
              "internalType": "uint256",
              "name": "age",
              "type": "uint256"
            }
          ],
          "internalType": "struct Registration.User",
          "name": "_user",
          "type": "tuple"
        }
      ],
      "name": "addUser",
      "outputs": [],
      "stateMutability": "nonpayable",
      "type": "function"
    },
    {
      "inputs": [],
      "name": "getAllUsers",
      "outputs": [
        {
          "components": [
            {
              "internalType": "string",
              "name": "name",
              "type": "string"
            },
            {
              "internalType": "uint256",
              "name": "age",
              "type": "uint256"
            }
          ],
          "internalType": "struct Registration.User[]",
          "name": "",
          "type": "tuple[]"
        }
      ],
      "stateMutability": "view",
      "type": "function",
      "constant": true
    }
  ],
  "bytecode": "0x608060405234801561001057600080fd5b506108d3806100206000396000f3fe608060405234801561001057600080fd5b50600436106100365760003560e01c8063d70a9c561461003b578063e2842d7914610057575b600080fd5b610055600480360381019061005091906103c7565b610075565b005b61005f6100c6565b60405161006c919061059d565b60405180910390f35b600081908060018154018082558091505060019003906000526020600020906002020160009091909190915060008201518160000190816100b691906107cb565b5060208201518160010155505050565b60606000805480602002602001604051908101604052809291908181526020016000905b828210156101b8578382906000526020600020906002020160405180604001604052908160008201805461011d906105ee565b80601f0160208091040260200160405190810160405280929190818152602001828054610149906105ee565b80156101965780601f1061016b57610100808354040283529160200191610196565b820191906000526020600020905b81548152906001019060200180831161017957829003601f168201915b50505050508152602001600182015481525050815260200190600101906100ea565b50505050905090565b6000604051905090565b600080fd5b600080fd5b600080fd5b6000601f19601f8301169050919050565b7f4e487b7100000000000000000000000000000000000000000000000000000000600052604160045260246000fd5b610223826101da565b810181811067ffffffffffffffff82111715610242576102416101eb565b5b80604052505050565b60006102556101c1565b9050610261828261021a565b919050565b600080fd5b600080fd5b600080fd5b600067ffffffffffffffff8211156102905761028f6101eb565b5b610299826101da565b9050602081019050919050565b82818337600083830152505050565b60006102c86102c384610275565b61024b565b9050828152602081018484840111156102e4576102e3610270565b5b6102ef8482856102a6565b509392505050565b600082601f83011261030c5761030b61026b565b5b813561031c8482602086016102b5565b91505092915050565b6000819050919050565b61033881610325565b811461034357600080fd5b50565b6000813590506103558161032f565b92915050565b600060408284031215610371576103706101d5565b5b61037b604061024b565b9050600082013567ffffffffffffffff81111561039b5761039a610266565b5b6103a7848285016102f7565b60008301525060206103bb84828501610346565b60208301525092915050565b6000602082840312156103dd576103dc6101cb565b5b600082013567ffffffffffffffff8111156103fb576103fa6101d0565b5b6104078482850161035b565b91505092915050565b600081519050919050565b600082825260208201905092915050565b6000819050602082019050919050565b600081519050919050565b600082825260208201905092915050565b60005b8381101561047657808201518184015260208101905061045b565b60008484015250505050565b600061048d8261043c565b6104978185610447565b93506104a7818560208601610458565b6104b0816101da565b840191505092915050565b6104c481610325565b82525050565b600060408301600083015184820360008601526104e78282610482565b91505060208301516104fc60208601826104bb565b508091505092915050565b600061051383836104ca565b905092915050565b6000602082019050919050565b600061053382610410565b61053d818561041b565b93508360208202850161054f8561042c565b8060005b8581101561058b578484038952815161056c8582610507565b94506105778361051b565b925060208a01995050600181019050610553565b50829750879550505050505092915050565b600060208201905081810360008301526105b78184610528565b905092915050565b7f4e487b7100000000000000000000000000000000000000000000000000000000600052602260045260246000fd5b6000600282049050600182168061060657607f821691505b602082108103610619576106186105bf565b5b50919050565b60008190508160005260206000209050919050565b60006020601f8301049050919050565b600082821b905092915050565b6000600883026106817fffffffffffffffffffffffffffffffffffffffffffffffffffffffffffffffff82610644565b61068b8683610644565b95508019841693508086168417925050509392505050565b6000819050919050565b60006106c86106c36106be84610325565b6106a3565b610325565b9050919050565b6000819050919050565b6106e2836106ad565b6106f66106ee826106cf565b848454610651565b825550505050565b600090565b61070b6106fe565b6107168184846106d9565b505050565b5b8181101561073a5761072f600082610703565b60018101905061071c565b5050565b601f82111561077f576107508161061f565b61075984610634565b81016020851015610768578190505b61077c61077485610634565b83018261071b565b50505b505050565b600082821c905092915050565b60006107a260001984600802610784565b1980831691505092915050565b60006107bb8383610791565b9150826002028217905092915050565b6107d48261043c565b67ffffffffffffffff8111156107ed576107ec6101eb565b5b6107f782546105ee565b61080282828561073e565b600060209050601f8311600181146108355760008415610823578287015190505b61082d85826107af565b865550610895565b601f1984166108438661061f565b60005b8281101561086b57848901518255600182019150602085019450602081019050610846565b868310156108885784890151610884601f891682610791565b8355505b6001600288020188555050505b50505050505056fea2646970667358221220f20a1b45a93193319d14116ea312a5ba6f8e0e0b147000776f243803245168eb64736f6c63430008130033",
  "immutableReferences": {},
  "source": "// SPDX-License-Identifier: MIT\npragma solidity 0.8.19;\n\ncontract Registration {\n    struct User {\n        string  name;\n        uint256 age;\n    }\n\n    User[] users;\n\n    function addUser(User memory _user) public {\n        users.push(_user);\n    }\n\n    function getAllUsers() public view returns(User[] memory) {\n        return users;\n    }\n}\n",
  "sourcePath": "/Users/sam/Documents/Blockchain/Redux/contracts/Registration.sol",
  "compiler": {
    "name": "solc",
    "version": "0.8.19+commit.7dd6d404.Emscripten.clang"
  },
  "schemaVersion": "3.4.9",
  "updatedAt": "2023-05-23T21:50:01.797Z",
  "networkType": "ethereum",
  "devdoc": {
    "kind": "dev",
    "methods": {},
    "version": 1
  },
  "userdoc": {
    "kind": "user",
    "methods": {},
    "version": 1
  }
}